:060000000A128A11122809
:10000800FE00030E83120313AF000408B0000A08B1
:10001800B1007F08B2000A128A11CF290A128A1188
:1000280015280A128A11BB220A128A11BE00BA01C7
:10003800BB01BC01BD0183010A128A11FD2883128C
:100048000313AB002130A600E82825302C0603193D
:100058002E282F2839282B0884002C088313800089
:100068000130A3002308AB07E828A7010130A00747
:10007800FF30200784000A128A114F210A128A11C0
:10008800AC00A300A4012408003A03194C28E8286E
:100098002308003A0319F828643A031957280D3A37
:1000A80003195728E8282608840083130008A900A4
:1000B800840A0008AA000230A3002308A607AA1F82
:1000C8006628672870280330A3002308A704A90915
:1000D800AA09A90A0319AA0AAC01AC0A2C08A300A8
:1000E8002307013E84000A128A114F210A128A113D
:1000F800A4000A128A114F210A128A11A5002508A4
:100108002A02031D89282408290203188C288D280F
:100118008E2898280130A3002308AC0705302C0648
:10012800031D9728982872282708033903199D2842
:100138009E28A7282B0884002D30831380000130C7
:10014800A3002308AB072C08A800DF280A30F80012
:100158000030F9002808A3002307013E84000A1292
:100168008A114F210A128A11F0000A128A114F21AE
:100178000A128A11F1002A08F3002908F2000A126B
:100188008A118B210A128A117108FB007008FA0083
:100198000A128A1150220A128A117808303E8312F4
:1001A8000313AC002B0884002C0883138000013053
:1001B800A3002308AB07FF30A3002308A807280AD9
:1001C800031DE728E828AA280130A007FF302007E8
:1001D80084000A128A114F210A128A11AC002C08D5
:1001E800031DF728F82829282B0884008313800189
:1001F80008000A128A118A220A128A11831203132A
:100208009F1430303E06031D0A290B2923290C3080
:10021800B3008030B4000A128A1112220A128A111D
:10022800233083120313B3008030B4000A128A11FA
:1002380012220A128A1183120313BE0136293130A1
:100248003E06031D2829292936293C30B3000030F1
:10025800B4000A128A1112220A128A11303083124B
:100268000313BE00A33083120313B9005430B8003F
:10027800B80B3C29B90B3C29000002290A128A1143
:100288001228FF1B4F2983137F1883170008840A3D
:100298000319FF0A080001308A000408840A82074B
:1002A8000034013400340A34003464340034E8344F
:1002B8000334103427340D3431342E3420344C3484
:1002C800653465347234203470346F347434653472
:1002D8006E34633469346F346D3465347434723415
:1002E8006F342034003432342E34203445346E34A4
:1002F80076346934613472342034413453344334AD
:100308004934493420340034253464340034F50148
:10031800F60170087104031992299329CA29F70173
:10032800F70AA12901300310F00DF10DFF3E031D5E
:1003380097290130F4007408F707F11FA429A529AB
:10034800962901300310F50DF60DFF3E031DA62971
:1003580071087302031DB22970087202031CB529C3
:10036800B629BD297008F2027108031CF303F302D1
:10037800751401300310F10CF00CFF3E031DBE296B
:100388000130F702031DC929CA29A5297608F100F9
:100398007508F00008000C1FD229D329E22934304F
:1003A800A0001E08AD00AE012D08A1002E08A20075
:1003B8003C300A128A1123200A128A11831203136D
:1003C8008C1EE729E829052A1A08BE0032303E06A5
:1003D800031DEF29F029052A9A01FB291A0886002E
:1003E8000608AD00AE012D08BA002E08BB003A0879
:1003F8003B040319002A012AF2293030BE00BA0151
:10040800BB018C120C133208FF0031088A00300837
:1004180084002F0E8300FE0E7E0E09008312031344
:10042800B7012B2A0C1E192A1A2A162A370833074D
:10043800840034080318340AFF000A128A1145217F
:100448000A128A1199000130B5003508B707370834
:100458003307840034080318340AFF000A128A118B
:1004680045210A128A11003A031D3B2A3C2A162A02
:10047800213083120313B6007530B500B50B422A3C
:10048800B60B422A472A831203130C1E4C2A4D2A04
:100498004F2A0D3099000800780879040319552A65
:1004A800562A852AFD01FD0A642A01300310F80D39
:1004B800F90DFF3E031D5A2A0130FC007C08FD0798
:1004C800F91F672A682A592A79087B02031D6E2AB0
:1004D80078087A02031C712A722A782A7808FA02A4
:1004E8007908031CFB03FB0201300310F90CF80C1C
:1004F800FF3E031D792A0130FD02031D842A852A47
:10050800682A7B08F9007A08F8000800403083164A
:1005180003138F00C0308B0060308C0083120313EC
:100528008C012430831603139800083083160317B0
:100538008700903083120313980019308316031331
:1005480099009A014130831203139F008316031305
:100558009F01831603178901013088000130831633
:1005680003138500860183120313860108003034C3
:08400000FF3FFF3FFF3FFF3FC0
:04400E00D420FF3F7C
:00000001FF
